{
  "contractName": "Registration",
  "abi": [
    {
      "constant": true,
      "inputs": [
        {
          "name": "",
          "type": "uint256"
        }
      ],
      "name": "guests",
      "outputs": [
        {
          "name": "firstName",
          "type": "string"
        },
        {
          "name": "lastName",
          "type": "string"
        },
        {
          "name": "email",
          "type": "string"
        },
        {
          "name": "organization",
          "type": "string"
        },
        {
          "name": "gitHubUrl",
          "type": "string"
        },
        {
          "name": "linkedInUrl",
          "type": "string"
        },
        {
          "name": "identity",
          "type": "string"
        }
      ],
      "payable": false,
      "stateMutability": "view",
      "type": "function"
    },
    {
      "constant": false,
      "inputs": [
        {
          "name": "_firstName",
          "type": "string"
        },
        {
          "name": "_lastName",
          "type": "string"
        },
        {
          "name": "_email",
          "type": "string"
        },
        {
          "name": "_organization",
          "type": "string"
        },
        {
          "name": "_gitHubUrl",
          "type": "string"
        },
        {
          "name": "_linkedInUrl",
          "type": "string"
        },
        {
          "name": "_identity",
          "type": "string"
        }
      ],
      "name": "addGuest",
      "outputs": [
        {
          "name": "success",
          "type": "bool"
        }
      ],
      "payable": false,
      "stateMutability": "nonpayable",
      "type": "function"
    }
  ],
  "bytecode": "0x6060604052341561000f57600080fd5b610a388061001e6000396000f30060606040526004361061004c576000357c0100000000000000000000000000000000000000000000000000000000900463ffffffff168063902dd26714610051578063d7fed55a14610440575b600080fd5b341561005c57600080fd5b6100726004808035906020019091905050610647565b604051808060200180602001806020018060200180602001806020018060200188810388528f8181546001816001161561010002031660029004815260200191508054600181600116156101000203166002900480156101135780601f106100e857610100808354040283529160200191610113565b820191906000526020600020905b8154815290600101906020018083116100f657829003601f168201915b505088810387528e8181546001816001161561010002031660029004815260200191508054600181600116156101000203166002900480156101965780601f1061016b57610100808354040283529160200191610196565b820191906000526020600020905b81548152906001019060200180831161017957829003601f168201915b505088810386528d8181546001816001161561010002031660029004815260200191508054600181600116156101000203166002900480156102195780601f106101ee57610100808354040283529160200191610219565b820191906000526020600020905b8154815290600101906020018083116101fc57829003601f168201915b505088810385528c81815460018160011615610100020316600290048152602001915080546001816001161561010002031660029004801561029c5780601f106102715761010080835404028352916020019161029c565b820191906000526020600020905b81548152906001019060200180831161027f57829003601f168201915b505088810384528b81815460018160011615610100020316600290048152602001915080546001816001161561010002031660029004801561031f5780601f106102f45761010080835404028352916020019161031f565b820191906000526020600020905b81548152906001019060200180831161030257829003601f168201915b505088810383528a8181546001816001161561010002031660029004815260200191508054600181600116156101000203166002900480156103a25780601f10610377576101008083540402835291602001916103a2565b820191906000526020600020905b81548152906001019060200180831161038557829003601f168201915b50508881038252898181546001816001161561010002031660029004815260200191508054600181600116156101000203166002900480156104255780601f106103fa57610100808354040283529160200191610425565b820191906000526020600020905b81548152906001019060200180831161040857829003601f168201915b50509e50505050505050505050505050505060405180910390f35b341561044b57600080fd5b61062d600480803590602001908201803590602001908080601f0160208091040260200160405190810160405280939291908181526020018383808284378201915050505050509190803590602001908201803590602001908080601f0160208091040260200160405190810160405280939291908181526020018383808284378201915050505050509190803590602001908201803590602001908080601f0160208091040260200160405190810160405280939291908181526020018383808284378201915050505050509190803590602001908201803590602001908080601f0160208091040260200160405190810160405280939291908181526020018383808284378201915050505050509190803590602001908201803590602001908080601f0160208091040260200160405190810160405280939291908181526020018383808284378201915050505050509190803590602001908201803590602001908080601f0160208091040260200160405190810160405280939291908181526020018383808284378201915050505050509190803590602001908201803590602001908080601f01602080910402602001604051908101604052809392919081815260200183838082843782019150505050505091905050610691565b604051808215151515815260200191505060405180910390f35b60008181548110151561065657fe5b906000526020600020906007020160009150905080600001908060010190806002019080600301908060040190806005019080600601905087565b600061069b6107e2565b888160000181905250878160200181905250868160400181905250858160600181905250848160800181905250838160a00181905250828160c00181905250600080548060010182816106ee919061084a565b91600052602060002090600702016000839091909150600082015181600001908051906020019061072092919061087c565b50602082015181600101908051906020019061073d92919061087c565b50604082015181600201908051906020019061075a92919061087c565b50606082015181600301908051906020019061077792919061087c565b50608082015181600401908051906020019061079492919061087c565b5060a08201518160050190805190602001906107b192919061087c565b5060c08201518160060190805190602001906107ce92919061087c565b505050506001915050979650505050505050565b60e0604051908101604052806107f66108fc565b81526020016108036108fc565b81526020016108106108fc565b815260200161081d6108fc565b815260200161082a6108fc565b81526020016108376108fc565b81526020016108446108fc565b81525090565b815481835581811511610877576007028160070283600052602060002091820191016108769190610910565b5b505050565b828054600181600116156101000203166002900490600052602060002090601f016020900481019282601f106108bd57805160ff19168380011785556108eb565b828001600101855582156108eb579182015b828111156108ea5782518255916020019190600101906108cf565b5b5090506108f8919061099f565b5090565b602060405190810160405280600081525090565b61099c91905b80821115610998576000808201600061092f91906109c4565b60018201600061093f91906109c4565b60028201600061094f91906109c4565b60038201600061095f91906109c4565b60048201600061096f91906109c4565b60058201600061097f91906109c4565b60068201600061098f91906109c4565b50600701610916565b5090565b90565b6109c191905b808211156109bd5760008160009055506001016109a5565b5090565b90565b50805460018160011615610100020316600290046000825580601f106109ea5750610a09565b601f016020900490600052602060002090810190610a08919061099f565b5b505600a165627a7a7230582070ab12a57ae043b7dfc59146b1497eea899ed9c294ca3928c1482c8db611fa530029",
  "source": "pragma solidity ^0.4.18;\n\n contract Registration {\n\n   Guest[] public guests;\n\n   struct Guest {\n      string firstName;\n      string lastName;\n      string email;\n      string organization;\n      string gitHubUrl;\n      string linkedInUrl;\n      string identity;\n      /* string attribute; */\n   }\n\n   function addGuest(\n      string _firstName,\n      string _lastName,\n      string _email,\n      string _organization,\n      string _gitHubUrl,\n      string _linkedInUrl,\n      string _identity\n      /* string _attribute */\n\n   ) public returns (bool success) {\n\n      Guest memory newGuest;\n      newGuest.firstName = _firstName;\n      newGuest.lastName = _lastName;\n      newGuest.email = _email;\n      newGuest.organization = _organization;\n      newGuest.gitHubUrl = _gitHubUrl;\n      newGuest.linkedInUrl = _linkedInUrl;\n      newGuest.identity = _identity;\n      /* newGuest.attribute = _attribute; */\n\n      guests.push(newGuest);\n      return true;\n   }\n}\n",
  "sourcePath": "/Users/stevelee/Documents/w3d/ethMemphis/contracts/Application.sol",
  "compiler": {
    "name": "solc",
    "version": "0.4.18+commit.9cf6e910.Emscripten.clang"
  },
  "schemaVersion": "1.0.1",
  "updatedAt": "2018-01-26T05:57:48.664Z"
}